{
  "contractName": "TestCrowdsale",
  "abi": [
    {
      "constant": true,
      "inputs": [],
      "name": "hasClosed",
      "outputs": [
        {
          "internalType": "bool",
          "name": "",
          "type": "bool"
        }
      ],
      "payable": false,
      "stateMutability": "view",
      "type": "function"
    },
    {
      "constant": true,
      "inputs": [],
      "name": "rate",
      "outputs": [
        {
          "internalType": "uint256",
          "name": "",
          "type": "uint256"
        }
      ],
      "payable": false,
      "stateMutability": "view",
      "type": "function"
    },
    {
      "constant": true,
      "inputs": [],
      "name": "cap",
      "outputs": [
        {
          "internalType": "uint256",
          "name": "",
          "type": "uint256"
        }
      ],
      "payable": false,
      "stateMutability": "view",
      "type": "function"
    },
    {
      "constant": true,
      "inputs": [],
      "name": "weiRaised",
      "outputs": [
        {
          "internalType": "uint256",
          "name": "",
          "type": "uint256"
        }
      ],
      "payable": false,
      "stateMutability": "view",
      "type": "function"
    },
    {
      "constant": true,
      "inputs": [],
      "name": "isOpen",
      "outputs": [
        {
          "internalType": "bool",
          "name": "",
          "type": "bool"
        }
      ],
      "payable": false,
      "stateMutability": "view",
      "type": "function"
    },
    {
      "constant": true,
      "inputs": [],
      "name": "closingTime",
      "outputs": [
        {
          "internalType": "uint256",
          "name": "",
          "type": "uint256"
        }
      ],
      "payable": false,
      "stateMutability": "view",
      "type": "function"
    },
    {
      "constant": true,
      "inputs": [],
      "name": "capReached",
      "outputs": [
        {
          "internalType": "bool",
          "name": "",
          "type": "bool"
        }
      ],
      "payable": false,
      "stateMutability": "view",
      "type": "function"
    },
    {
      "constant": true,
      "inputs": [],
      "name": "wallet",
      "outputs": [
        {
          "internalType": "address payable",
          "name": "",
          "type": "address"
        }
      ],
      "payable": false,
      "stateMutability": "view",
      "type": "function"
    },
    {
      "constant": true,
      "inputs": [],
      "name": "openingTime",
      "outputs": [
        {
          "internalType": "uint256",
          "name": "",
          "type": "uint256"
        }
      ],
      "payable": false,
      "stateMutability": "view",
      "type": "function"
    },
    {
      "constant": false,
      "inputs": [
        {
          "internalType": "address",
          "name": "beneficiary",
          "type": "address"
        }
      ],
      "name": "buyTokens",
      "outputs": [],
      "payable": true,
      "stateMutability": "payable",
      "type": "function"
    },
    {
      "constant": true,
      "inputs": [],
      "name": "token",
      "outputs": [
        {
          "internalType": "contract IERC20",
          "name": "",
          "type": "address"
        }
      ],
      "payable": false,
      "stateMutability": "view",
      "type": "function"
    },
    {
      "inputs": [
        {
          "internalType": "uint256",
          "name": "_rate",
          "type": "uint256"
        },
        {
          "internalType": "address payable",
          "name": "_wallet",
          "type": "address"
        },
        {
          "internalType": "contract IERC20",
          "name": "_token",
          "type": "address"
        },
        {
          "internalType": "uint256",
          "name": "_openingTime",
          "type": "uint256"
        },
        {
          "internalType": "uint256",
          "name": "_closingTime",
          "type": "uint256"
        },
        {
          "internalType": "uint256",
          "name": "_cap",
          "type": "uint256"
        }
      ],
      "payable": false,
      "stateMutability": "nonpayable",
      "type": "constructor"
    },
    {
      "payable": true,
      "stateMutability": "payable",
      "type": "fallback"
    },
    {
      "anonymous": false,
      "inputs": [
        {
          "indexed": false,
          "internalType": "uint256",
          "name": "prevClosingTime",
          "type": "uint256"
        },
        {
          "indexed": false,
          "internalType": "uint256",
          "name": "newClosingTime",
          "type": "uint256"
        }
      ],
      "name": "TimedCrowdsaleExtended",
      "type": "event"
    },
    {
      "anonymous": false,
      "inputs": [
        {
          "indexed": true,
          "internalType": "address",
          "name": "purchaser",
          "type": "address"
        },
        {
          "indexed": true,
          "internalType": "address",
          "name": "beneficiary",
          "type": "address"
        },
        {
          "indexed": false,
          "internalType": "uint256",
          "name": "value",
          "type": "uint256"
        },
        {
          "indexed": false,
          "internalType": "uint256",
          "name": "amount",
          "type": "uint256"
        }
      ],
      "name": "TokensPurchased",
      "type": "event"
    }
  ],
  "bytecode": "0x608060405234801561001057600080fd5b50604051610b43380380610b43833981810160405260c081101561003357600080fd5b508051602082015160408301516060840151608085015160a0909501516000805460ff191660011790559394929391929091828282888888826100d757604080517f08c379a000000000000000000000000000000000000000000000000000000000815260206004820152601460248201527f43726f776473616c653a20726174652069732030000000000000000000000000604482015290519081900360640190fd5b6001600160a01b038216610136576040517f08c379a0000000000000000000000000000000000000000000000000000000008152600401808060200182810382526025815260200180610b1e6025913960400191505060405180910390fd5b6001600160a01b038116610195576040517f08c379a0000000000000000000000000000000000000000000000000000000008152600401808060200182810382526024815260200180610afa6024913960400191505060405180910390fd5b600292909255600180546001600160a01b039283166001600160a01b0319909116179055600080549190921661010002610100600160a81b03199091161790558061024157604080517f08c379a000000000000000000000000000000000000000000000000000000000815260206004820152601960248201527f43617070656443726f776473616c653a20636170206973203000000000000000604482015290519081900360640190fd5b6004554282101561029d576040517f08c379a0000000000000000000000000000000000000000000000000000000008152600401808060200182810382526033815260200180610a906033913960400191505060405180910390fd5b8181116102f5576040517f08c379a0000000000000000000000000000000000000000000000000000000008152600401808060200182810382526037815260200180610ac36037913960400191505060405180910390fd5b60059190915560065550505050505061077d806103136000396000f3fe60806040526004361061009c5760003560e01c80634b6753bc116100645780634b6753bc1461013d5780634f93594514610152578063521eb27314610167578063b7a8807c14610198578063ec8ac4d8146101ad578063fc0c546a146101d35761009c565b80631515bc2b146100ae5780632c4e722e146100d7578063355274ea146100fe5780634042b66f1461011357806347535d7b14610128575b6100ac6100a76101e8565b6101ec565b005b3480156100ba57600080fd5b506100c361030e565b604080519115158252519081900360200190f35b3480156100e357600080fd5b506100ec610316565b60408051918252519081900360200190f35b34801561010a57600080fd5b506100ec61031c565b34801561011f57600080fd5b506100ec610322565b34801561013457600080fd5b506100c3610328565b34801561014957600080fd5b506100ec610343565b34801561015e57600080fd5b506100c3610349565b34801561017357600080fd5b5061017c61035d565b604080516001600160a01b039092168252519081900360200190f35b3480156101a457600080fd5b506100ec61036c565b6100ac600480360360208110156101c357600080fd5b50356001600160a01b03166101ec565b3480156101df57600080fd5b5061017c610372565b3390565b60005460ff16610243576040805162461bcd60e51b815260206004820152601f60248201527f5265656e7472616e637947756172643a207265656e7472616e742063616c6c00604482015290519081900360640190fd5b6000805460ff19169055346102588282610386565b6000610263826103ed565b600354909150610279908363ffffffff61040a16565b600355610286838261046b565b826001600160a01b03166102986101e8565b6001600160a01b03167f6faf93231a456e552dbc9961f58d9713ee4f2e69d15f1975b050ef0911053a7b8484604051808381526020018281526020019250505060405180910390a36102ea83836103e9565b6102f2610475565b6102fc83836103e9565b50506000805460ff1916600117905550565b600654421190565b60025490565b60045490565b60035490565b6000600554421015801561033e57506006544211155b905090565b60065490565b6000600454610356610322565b1015905090565b6001546001600160a01b031690565b60055490565b60005461010090046001600160a01b031690565b61038e610328565b6103df576040805162461bcd60e51b815260206004820152601860248201527f54696d656443726f776473616c653a206e6f74206f70656e0000000000000000604482015290519081900360640190fd5b6103e982826104b1565b5050565b60006104046002548361052990919063ffffffff16565b92915050565b600082820183811015610464576040805162461bcd60e51b815260206004820152601b60248201527f536166654d6174683a206164646974696f6e206f766572666c6f770000000000604482015290519081900360640190fd5b9392505050565b6103e98282610582565b6001546040516001600160a01b03909116903480156108fc02916000818181858888f193505050501580156104ae573d6000803e3d6000fd5b50565b6104bb8282610666565b6004546104d6826104ca610322565b9063ffffffff61040a16565b11156103e9576040805162461bcd60e51b815260206004820152601d60248201527f43617070656443726f776473616c653a20636170206578636565646564000000604482015290519081900360640190fd5b60008261053857506000610404565b8282028284828161054557fe5b04146104645760405162461bcd60e51b81526004018080602001828103825260218152602001806106fe6021913960400191505060405180910390fd5b61058a610372565b6001600160a01b03166340c10f1983836040518363ffffffff1660e01b815260040180836001600160a01b03166001600160a01b0316815260200182815260200192505050602060405180830381600087803b1580156105e957600080fd5b505af11580156105fd573d6000803e3d6000fd5b505050506040513d602081101561061357600080fd5b50516103e9576040805162461bcd60e51b815260206004820152601f60248201527f4d696e74656443726f776473616c653a206d696e74696e67206661696c656400604482015290519081900360640190fd5b6001600160a01b0382166106ab5760405162461bcd60e51b815260040180806020018281038252602a81526020018061071f602a913960400191505060405180910390fd5b806103e9576040805162461bcd60e51b815260206004820152601960248201527f43726f776473616c653a20776569416d6f756e74206973203000000000000000604482015290519081900360640190fdfe536166654d6174683a206d756c7469706c69636174696f6e206f766572666c6f7743726f776473616c653a2062656e656669636961727920697320746865207a65726f2061646472657373a265627a7a72315820cf88b49b50fe4bfb5e64ccffadba886f79d5a02d75d87e286f23e59fe618b83464736f6c634300050b003254696d656443726f776473616c653a206f70656e696e672074696d65206973206265666f72652063757272656e742074696d6554696d656443726f776473616c653a206f70656e696e672074696d65206973206e6f74206265666f726520636c6f73696e672074696d6543726f776473616c653a20746f6b656e20697320746865207a65726f206164647265737343726f776473616c653a2077616c6c657420697320746865207a65726f2061646472657373",
  "source": "// SPDX-License-Identifier: MIT\npragma solidity >=0.5.0 <0.6.0;\n\nimport \"openzeppelin-solidity/contracts/crowdsale/validation/TimedCrowdsale.sol\"; \nimport \"openzeppelin-solidity/contracts/crowdsale/emission/MintedCrowdsale.sol\"; \nimport \"openzeppelin-solidity/contracts/crowdsale/validation/CappedCrowdsale.sol\"; \nimport \"openzeppelin-solidity/contracts/token/ERC20/IERC20.sol\";\n\ncontract TestCrowdsale is CappedCrowdsale, TimedCrowdsale, MintedCrowdsale {\n    constructor(\n        uint256 _rate,\n        address payable _wallet,\n        IERC20 _token,\n        uint256 _openingTime, \n        uint256 _closingTime,\n        uint256 _cap\n    ) Crowdsale(_rate, _wallet, _token) TimedCrowdsale(_openingTime, _closingTime) CappedCrowdsale(_cap) public {\n\n    } \n}",
  "sourcePath": "/Users/vtech/Desktop/crowdsale/contracts/TestCrowdsale.sol",
  "compiler": {
    "name": "solc",
    "version": "0.5.11+commit.c082d0b4.Emscripten.clang"
  },
  "schemaVersion": "3.4.5",
  "updatedAt": "2022-02-22T21:17:02.735Z",
  "networkType": "ethereum",
  "devdoc": {
    "methods": {
      "buyTokens(address)": {
        "details": "low level token purchase ***DO NOT OVERRIDE*** This function has a non-reentrancy guard, so it shouldn't be called by another `nonReentrant` function.",
        "params": {
          "beneficiary": "Recipient of the token purchase"
        }
      },
      "cap()": {
        "return": "the cap of the crowdsale."
      },
      "capReached()": {
        "details": "Checks whether the cap has been reached.",
        "return": "Whether the cap was reached"
      },
      "closingTime()": {
        "return": "the crowdsale closing time."
      },
      "hasClosed()": {
        "details": "Checks whether the period in which the crowdsale is open has already elapsed.",
        "return": "Whether crowdsale period has elapsed"
      },
      "isOpen()": {
        "return": "true if the crowdsale is open, false otherwise."
      },
      "openingTime()": {
        "return": "the crowdsale opening time."
      },
      "rate()": {
        "return": "the number of token units a buyer gets per wei."
      },
      "token()": {
        "return": "the token being sold."
      },
      "wallet()": {
        "return": "the address where funds are collected."
      },
      "weiRaised()": {
        "return": "the amount of wei raised."
      }
    }
  },
  "userdoc": {
    "methods": {}
  }
}